:02000002D0002C
:1040000000400D00746B0D00000006000E0005015D
:08401000040115050000000089
:104018001C660D0009480A49884208B505D0094AB6
:10402800824202D0121A02F096FA0748074A002183
:10403800121A02F0B6FA014808BD00BF28E30320AF
:10404800D06A0D00A4E30320A4E30320F0E70320D3
:1040580070B502F069F8074C074BE41AA40800256C
:104068001E46A54204D056F8253098470135F8E792
:1040780070BD00BFD06A0D00986A0D0000F02CB822
:1040880008B500F0B7F8BDE8084002F01BB800F02A
:10409800F3BA00F0F9BA00F0F7BA0078B0FA80F095
:1040A800400970470123037070470000074A1268EF
:1040B8009A4202BF064A01781170064A1268934272
:1040C80002BF034B02785A70704700BF28E30320F1
:1040D800A8E3032030E303202DE9F0413C4B3D4E9B
:1040E8001888A2B0012102F05DF83B4B0121188825
:1040F80002F058F831680AA800F07CFB374BD6F874
:1041080000801F6819AC0025394614A80695079544
:1041180000F070FB4146204600F06CFB0297304FE0
:104128003049042214AB06A88DE8900001F0FEF98E
:104138002D4BD6F800801E680895314614A80995BD
:1041480000F058FB4146204600F054FB14AB042213
:104158002449029608A88DE8900001F0E7F900F0DC
:10416800FBFE06A901F004FB00F0F6FE08A901F029
:10417800FFFA204600F028FC0AA90FA800F0FCFA74
:104188000FA914A800F0F8FA9DF8603013F0FD03A9
:1041980004D00095102314AA072107E022AABDF82D
:1041A800501022F8721D009303210223204600F0CC
:1041B800C4FB00F0D1FE0022214600F0E5FC08A86F
:1041C80000F02DFD06A800F02AFD22B0BDE8F08120
:1041D8002CE3032034E3032038E3032028E30320FF
:1041E800B5400D0030660D0030E3032000230422A3
:1041F80000F0E2B910B5144B19781C46134B29B1DD
:104208000121188801F0DFFF114903E0188801F047
:10421800DAFF10491048FFF7E9FF61780F4B29B121
:104228000121188801F0CFFF094903E0188801F03F
:10423800CAFF08490A48FFF7D9FF4FF4FA70BDE8EA
:10424800104000F031BA00BFA8E303202CE303209C
:104258003B660D0045660D003E660D0038E3032001
:1042680049660D0000F08CB808B5024B1B689B68C6
:10427800019308BD7402030008B5024B1B685B6913
:10428800019308BD7402030008B5024B1B681B6D3F
:10429800019308BD7402030008B5024B1B689B6DAF
:1042A800019308BD7402030008B5024B1B681B6E1E
:1042B800019308BD7402030008B5034B1B68D3F8CB
:1042C800A830019308BD00007402030008B5034B31
:1042D8001B68D3F8AC30019308BD000074020300DA
:1042E80008B5024B1B689B68019308BD4802030090
:1042F80008B5024B1B681B69019308BD48020300FF
:1043080008B5024B1B685B69019308BD48020300AE
:1043180008B5024B1B681B6B019308BD48020300DC
:1043280008B5024B1B685B6C019308BD480203008B
:1043380008B5024B1B68DB6C019308BD48020300FB
:1043480008B5024B1B685B6D019308BD480203006A
:1043580008B5024B1B685B68019308BD180203008F
:1043680008B5024B1B68DB68019308BD18020300FF
:1043780008B5024B1B685B69019308BD180203006E
:1043880008B5024B1B681B68019308BD2C0203008B
:1043980008B5024B1B689B68019308BD2C020300FB
:1043A80008B5024B1B68DB68019308BD2C020300AB
:1043B80008B5024B1B681B69019308BD2C0203005A
:1043C80008B5024B1B681B6A019308BD280203004D
:1043D80008B5024B1B685B6A019308BD28020300FD
:1043E80008B5024B1B689B6A019308BD28020300AD
:1043F80008B5024B1B68DB6A019308BD280203005D
:1044080008B5024B1B681B6B019308BD280203000B
:1044180008B5024B1B685B6B019308BD28020300BB
:1044280008B5024B1B681B6C019308BD28020300EA
:1044380008B5024B1B685B69019308BD6402030061
:1044480008B5024B1B689B68019308BD680203000E
:1044580008B5024B1B68DB68019308BD68020300BE
:1044680008B5024B1B68DB69019308BD30020300E5
:1044780008B5024B1B681B6A019308BD3002030094
:1044880008B5024B1B681B68019308BD3C0203007A
:1044980008B5024B1B68DB68019308BD3C020300AA
:1044A80008B5024B1B681B69019308BD3C02030059
:1044B80008B5024B1B685B69019308BD3C02030009
:1044C80008B5024B1B689B69019308BD3C020300B9
:1044D80008B5024B1B68DB69019308BD3C02030069
:1044E80008B5024B1B681B6A019308BD3C02030018
:1044F80008B5024B1B689B6A019308BD3C02030088
:1045080008B5024B1B681B68019308BD4C020300E9
:1045180008B5024B1B681B69019308BD4C020300D8
:1045280008B5024B1B685B69019308BD4C02030088
:1045380008B5024B1B689B69019308BD4C02030038
:1045480008B5024B1B68DB69019308BD4C020300E8
:1045580008B5024B1B681B6A019308BD4C02030097
:1045680008B5024B1B685B6B019308BD6002030032
:1045780008B5024B1B685B68019308BD2002030065
:1045880008B5024B1B685B69019308BD2002030054
:1045980008B5034B1B68D3F88830019308BD0000A9
:1045A8002002030008B5034B1B68D3F8943001932D
:1045B80008BD00002002030008B5024B1B681B68F9
:1045C800019308BD4402030008B5024B1B68DB6B6E
:1045D800019308BD4402030008B5024B1B685B68E1
:1045E800019308BD4002030008B5024B1B689B6895
:1045F800019308BD4002030008B5024B1B68DB6845
:10460800019308BD4002030008B5024B1B681B69F3
:10461800019308BD4002030008B5024B1B685B69A3
:10462800019308BD4002030008B5024B1B689B6953
:10463800019308BD4002030008B5024B1B68DB6903
:10464800019308BD4002030008B5024B1B681B6AB2
:10465800019308BD4002030008B5024B1B681B6BA1
:10466800019308BD4002030008B5024B1B685B6B51
:10467800019308BD4002030008B5024B1B681B6884
:10468800019308BD1C02030008B5024B1B685B6858
:10469800019308BD1C02030008B5024B1B689B6808
:1046A800019308BD1C0203000021FFF769BF704792
:1046B80000207047704700207047704700207047FF
:1046C80010B51421044601F0DEFD204610BD10B5DA
:1046D8001421044601F0D7FD204610BD10B5142161
:1046E800044601F0D0FD204610BDFFF7D2BCFFF70D
:1046F800D0BCFFF7CEBC10B5036804469B6898474A
:10470800A368013BA3602BB923682046DB68BDE89A
:104718001040184710BD08B582798B799A4206D1A6
:10472800062201F009FFB0FA80F0400908BD002018
:1047380008BD10B514220446002101F032FF2046BE
:1047480010BD000010B500230370044B0446186820
:10475800FFF7EEFD01232370204610BDD4E30320AC
:1047680010B5037804461BB1024B1868FFF7E8FD43
:10477800204610BDD4E3032010B5034601F114020E
:1047880051F8044B43F8044B9142F9D110BD70B570
:104798000C4605461646FFF7CCFF2CB910222146D9
:1047A800284601F0FEFE16E0012E09D12B4604F141
:1047B800100254F8041B43F8041B9442F9D108E092
:1047C8006A1E0F23E15C02F8011F013BDBB2FF2BDD
:1047D800F8D101232B74284670BD38B50446154618
:1047E8001A46FFF7D4FF257301232D0A6573237436
:1047F800204638BD2DE9F04188460746FFF799FF66
:10480800B8F1000F02D0002610250FE01022414613
:10481800384601F0C6FE4AE018F80630A3F1300227
:10482800D1B2092908D8531C14D10136404601F0E9
:10483800E9FE8642F0D333E0A3F16102052A02D8EB
:10484800A3F15702EFE7A3F14102052AEDD8A3F13E
:104858003702E8E71201013DD4B27C55404601F029
:10486800D1FE01368642E0D218F80620A2F13003C4
:10487800D9B209290ED9A2F16103052B02D8A2F1F8
:10488800570307E0A2F14103052B94BFA2F13703B8
:104898004FF0FF335AB201331CBF14437C55C4E7B1
:1048A8007B190022BB4202D003F8012DFAE701234D
:1048B8003B743846BDE8F0811FB5037C13F0FD0F4B
:1048C80004460AD010220021684601F06AFE102230
:1048D8006946204601F030FE00E00088003018BF2D
:1048E800012004B010BD10B5047C14F0FD0F06D0F3
:1048F800102201F021FEB0FA80F0400910BD0388B3
:1049080008881B1A5842584110BDF0B58BB10024D5
:10491800E51C8D420FD8661C055D875D974205D161
:104928002E44B14207D31C60681CF0BD01352C44ED
:10493800EEE71846F0BD0020F0BD2DE9F743044628
:104948000E461D461746002A3AD00A4601AB016AB0
:10495800FFF7DBFF9DF82830226A03BBF8B1961CED
:104968002E44361A1F2E2BD8DDF8048008F10209D0
:10497800C8EB0202121A00EB080105EB090092B21B
:104988002144204401F0F2FD6B1C04F808302A464B
:10499800394604EB090001F0DEFD266210E0901CA8
:1049A8002B181F2B0CD86B1CA354224420623946A9
:1049B800567020442A4601F0CEFD226A2A4422621B
:1049C800206A03B0BDE8F0831FB50446034600F132
:1049D8001F02002003F8010B93424FF00001F9D1A8
:1049E80004AA062302F8013D012321620091204612
:1049F8001946FFF7A2FF204604B010BD73B50A465A
:104A08000E4601AB016A0446FFF77FFF054678B101
:104A18000198226A2918121A521B2144204401F0D5
:104A28009AFD236A5D1B256231462046FFF7E6FFA3
:104A380002B070BD38B50025044600F8025BFFF7E8
:104A480078FE04F11600FFF774FE094904F12C0002
:104A580001F0D2F9012384F83C304FF6FF73E56486
:104A68002565A4F85430A56584F85C50204638BD07
:104A780068680D002DE9F84390E850000D46174688
:104A8800984604EBC606A64233D023689A69D969CA
:104A980002EBC10191421BD013689BB1B3F84200ED
:104AA800A84211D0B3F84400A8420DD0B3F846008C
:104AB800A84209D0B3F84800A84205D0B3F84A0084
:104AC800A84201D00832E5E717B1B8F1000F01D1CB
:104AD8000834D8E7D3F84C90B9F1000FF8D0B3F800
:104AE8004420AA42F4D11B6D089A41463846C8476B
:104AF800EEE7BDE8F883F8B590E850000F4604EB00
:104B0800C606B442254608D0394654F8080BFFF7C4
:104B1800EAFE0028F5D02846F8BD0020F8BD08B503
:104B280000680968C28ACB8A9A4204D101310130EF
:104B3800FFF7F1FD08BD002008BD084609B90A467F
:104B480001E0096A0022FFF79FBB10B50C4611B9B6
:104B58000A46084606E001212046FFF74FFF216A72
:104B680000222046BDE81040FFF796BB13B501A808
:104B7800FFF7E8FD0020FFF797FB044601A8FFF7C1
:104B8800EFFD204602B010BD73B505460C4601A8DE
:104B98001646FFF7D7FD21462846FFF7CEFF002827
:104BA80008DB31462846FFF7D0FF002802DB2846FD
:104BB800FFF7DCFF044601A8FFF7D2FD204602B04C
:104BC80070BD30B5836993E8140002EBC404A242B7
:104BD800134607D01D68ED8A8D4202F10802F6D10E
:104BE800184630BDC2691368526803EBC2029A4284
:104BF800184606D00468E48A8C4203F10803F6D10B
:104C080030BD002030BD10B50446006828B14368A7
:104C1800013B43600BB9FFF76EFD204610BD10B590
:104C280004460430FFF7EFFF204610BD0B68036011
:104C380013B15A6801325A60704710B551F8043BF5
:104C4800044640F8043BFFF7F1FF204610BD10B5BD
:104C580051F8043B044640F8043BFFF7E7FF2046C1
:104C680010BD70B504684368054604EBC306A64248
:104C780004D0201DFFF7C7FF0834F8E72868FFF7BE
:104C880003FD284670BD38B5044610200D78FFF79F
:104C9800FEF920B100230360436083600573206040
:104CA800204638BD38B50468054634B12046FFF7BC
:104CB800D8FF1021204601F0E6FA284638BD10B585
:104CC800046904F11C00FFF7EDFF2046BDE8104021
:104CD800FFF7DFB970B504684368054604EBC306FF
:104CE800A64204D0201DFFF78EFF0834F8E7002302
:104CF8006B6070BD8842F8B506460C46154614D957
:104D0800904213D2A2F108056C1AA1F108070444D5
:104D1800AF4218D01CB129462046FFF798FF281D3E
:104D2800FFF771FF083D083CF2E70CD0AC420AD00F
:104D38001EB121463046FFF78AFF201DFFF763FFAB
:104D480008340836F2E7F8BDF8B50B68DA690E469C
:104D580013685168054603EBC101002499420DD040
:104D680018688269C06902EBC000904204D052F80A
:104D7800087B87F85C40F8E70833EFE733684FF6BD
:104D8800FF710022D9827F211A701976C3F80A2090
:104D9800C3F80E20C3F812202C686B6804EBC30715
:104DA800BC4216D031462046FFF7B9FE08B9083490
:104DB800F6E774B1201DFFF726FF2B686A6804F137
:104DC800080103EBC2022046FFF794FF6B68013B22
:104DD8006B60F8BDF7B5044646686846FFF737FFCD
:104DE8006768A3689F4214DB0137002F0BDDF800CA
:104DF800FFF742FC054600B394E8060001EBC20247
:104E0800FFF778FF00E000252068FFF73DFC2560EC
:104E1800A7602368626803EBC60503EBC202294654
:104E280005F10800FFF766FF1DB169462846FFF740
:104E38000EFF636801336360012501A8FFF7E3FEF5
:104E4800284603B0F0BD70B504684368054604EB16
:104E5800C306A64204D0201DFFF7D5FE0834F8E7A4
:104E68002868FFF711FC284670BD10B5044638B114
:104E7800FFF7E9FF20460C21BDE8104001F003BA16
:104E880010BD10B5044638B1FFF7DDFF20460C21F0
:104E9800BDE8104001F0F7B910BD000037B5002596
:104EA8000446056045608560C560056145618561AA
:104EB800C5612846FFF7D8F920B1254A29460A20B6
:104EC800FFF74EFB01230DF1030101A88DF8033014
:104ED800FFF7D9FE2569019B23610022019235B1B4
:104EE8002846FFF7BEFE1021284601F0CCF901A89C
:104EF800FFF7D8FE0120FFF7CAF8636960611BB1AC
:104F08000121184601F0BFF90C20FFF7C0F803464D
:104F180018B10022026042608260A069A36108B1F2
:104F2800FFF7A3FF0C20FFF7B2F8034618B10022E1
:104F3800026042608260E069E36108B1FFF7A1FFA7
:104F4800002221460348FFF797F9204603B030BDF9
:104F580069430D0081530D0010B50A4C2368DB0727
:104F68000ED42046FFF799F850B10748FFF796FF8F
:104F78002046FFF797F8054A0549034801F07EF9EE
:104F8800014810BDCCE30320ACE30320A4E30320D5
:104F98009D4F0D0010B50446C06908B1FFF771FFB9
:104FA800A06908B1FFF761FF606910B1012101F044
:104FB8006AF904F11000FFF775FE204610BD88421B
:104FC800F8B506460C46154614D9904213D2A2F1FC
:104FD80008056C1AA1F108070444AF4218D01CB1A7
:104FE80029462046FFF729FE281DFFF70CFE083D3D
:104FF800083CF2E70CD0AC420AD01EB1214630463C
:10500800FFF71BFE201DFFF7FEFD08340836F2E708
:10501800F8BDF7B5044646686846FFF70EFE6768B0
:10502800A3689F4214DB0137002F0BDDF800FFF760
:1050380023FB054600B394E8060001EBC202FFF724
:10504800BEFF00E000252068FFF71EFB2560A76073
:105058002368626803EBC60503EBC202294605F123
:105068000800FFF7ACFF1DB169462846FFF7E5FDCC
:10507800636801336360012501A8FFF7C4FD284672
:1050880003B0F0BD2DE9F04F0C688BB006460F4613
:1050980014B38569C36904F1020A05EBC30804F176
:1050A800160BA84516D0D5F80090504609F1020114
:1050B800FFF719FC00286BD009F116015846FFF7D5
:1050C80012FC002864D094F83C2099F83C309A42AD
:1050D8005ED101E023780BB930485BE094F83C30AE
:1050E800002B41D002342046FFF7E6FBB0B92C4B29
:1050F8002C491A88013292B21A8001A80123FFF7BD
:105108006CFB05AD01AA134603CBAB42206061607E
:105118001A4604F10804F6D11868206024242246AF
:10512800002101A801F03DFAADF806403C6804AA48
:10513800A31C04F1120E18685968154603C50833F4
:1051480073452A46F7D11868286023788DF8083007
:10515800B38AADF82430E36A0393002204F13E01D8
:1051680001A8FFF7B3F8A8B93B689E653B68012220
:1051780083F85C20394601A8FFF75FFD01A906F115
:105188001800FFF746FF02A8FFF73DFD002001E0E9
:10519800083586E70BB0BDE8F08F00BFF2FEFFFFD1
:1051A800D0E3032038670D00884270B515461AD938
:1051B800904219D2A1F10806511A0439151F441852
:1051C8002B1F9E4225D0042C07D055F8043C44F8E8
:1051D800043C29462046FFF729FD2846FFF713FD22
:1051E800083D083CECE714D00C1D061D231F9D420A
:1051F8000FD0042E07D054F8043C46F8043C21464E
:105208003046FFF713FD2046FFF7FDFC083408364B
:10521800ECE770BDF0B50F6889B00D463946044615
:10522800FFF769FC00285ED1237BBBB103AE3B4688
:1052380007F1100CB64618685968324603C208339D
:1052480063451646F7D118681060002307F1140269
:1052580071460120FFF730F8002845D1294602A8F9
:1052680051F8043B0193FFF7E1FC019B039302A96A
:1052780004A86768FFF7DAFC6568A3689D4214DB39
:105288000135002D0BDDE800FFF7F6F9064610B3EF
:1052980094E8060001EBC202FFF786FF00E0002653
:1052A8002068FFF7F1F92660A5602668626806EBBA
:1052B800C70506EBC202294605F10800FFF774FF8F
:1052C80035B1039B46F8373004A9281DFFF7AEFC1B
:1052D80063680133636004A8FFF795FC02A8FFF731
:1052E80092FC002000E0014809B0F0BDF2FEFFFF8B
:1052F80073B500250560456006462020FEF7C7FE09
:105308000446B0B1034601A903F8015BC0F8015097
:105318005D604FF6FF73C3827F23C0F80A50C0F860
:105328000E50C0F8125003761C308DF80450FFF769
:10533800AAFC002314200193FEF7A9FE28B101233B
:1053480043608360064B0360046173683460706077
:1053580001A80193FFF757FC304602B070BD00BFAB
:1053680024670D0013B54FF0000101AA0446FFF7AA
:10537800BFFF204602B010BDF0B504468BB00D4605
:10538800002900F0A58003A8FFF7DCF96368033B58
:10539800072B00F29A80DFE803F004449898989865
:1053A800808B06A8FFF7DEFF069BA2899A82628996
:1053B8005A8222891A822289DA81228BDA8222464B
:1053C800A17D52F8100F04909288ADF8142004982B
:1053D800BDF81420D971C3F80100A3F805202B6883
:1053E80013B1A96806A89847A37B012B069B0BBF9E
:1053F800022201221A701A700CBFAC69EC6963684A
:10540800002B0ADC06A908A8FFF721FC08A92046FA
:10541800FFF7E0FC09A8FFF7F6FB07A8FFF7F3FB87
:1054280053E0A1892846FFF7CCFB044600284CD05E
:105438006B680BB1E968984723681A78012A04D188
:105448002146E869FFF780FC3FE0DA69A86913683C
:105458005168002603EBC10199420DD01D68AA6965
:10546800ED6902EBC505954204D052F8087B87F830
:105478005C60F8E70833EFE723684FF6FF71002216
:10548800D9827F211A701976C3F80A20C3F80E2032
:10549800C3F81220FFF71EFC17E0A18A2846FFF781
:1054A80090FB90B1E18A0090E368226928690AE0DC
:1054B800A18A2846FFF785FB38B10568E18A009084
:1054C800E3682269E869FFF7D5FA03A8FFF748F906
:1054D8000BB0F0BD10B50446406808B1FEF7D9FD21
:1054E800204610BD07B503690C308DE8090003F1AB
:1054F8002C0000F03AFC6846FFF7ECFF03B05DF8BB
:1055080004FB000038B500230446036014200D4650
:10551800FEF7BDFD28B1012343608360024B0360A1
:1055280005612060204638BDEC660D002DE9F0418C
:1055380088B006461D466020002388461746049317
:105548000593FEF7A4FDCDF818D00446079000B3E4
:10555800FFF770FA414604F12C0000F060FC0F9B45
:10556800E364109B236527702B46A21C05F11401E8
:1055780053F8040B42F8040B8B42F9D10E9B04F14B
:10558800160203F1140153F8040B42F8040B8B4282
:10559800F9D12146002501AB02AA03A80795FFF718
:1055A800B1FF039B059A039203A805930494FFF7A0
:1055B8002AFB06A8FFF78EFF049B059A3168336023
:1055C80008A873680691726040F8043D0595049533
:1055D800FFF719FB05A8FFF716FB08B0BDE8F08137
:1055E80010B50446406808B1FEF753FD204610BDCB
:1055F80073B505690C30AC69EB698DE8210004EBE3
:10560800C306A64204D0201DFFF7FDFA0834F8E7C8
:10561800A869FFF739F86846FFF7E2FF02B070BDE6
:1056280038B500230446036014200D46FEF72FFD0D
:1056380028B1012343608360024B03600561206049
:10564800204638BD08670D00F0B5002687B0066013
:105658004660074624200D46FEF719FDCDF810D008
:1056680004460590A0B1FFF764F8A682E682A66119
:10567800E66126622B46224605F11006186859682D
:10568800154603C50833B3422A46F7D1186828607F
:1056980000232146059302AA01AB03A8FFF7C0FF28
:1056A800039B7A683C607B6003A80392FFF7ABFA20
:1056B80004A8FFF795FF384607B0F0BDF0B50B68B2
:1056C80087B005460C46002B46D0027B83F83C2069
:1056D800037BC3B108681630FFF7EEF898B90122CA
:1056E800214901A8FFF753F8236801AA163305AF2B
:1056F800164603CEBE4218605960324603F10803CD
:10570800F6D1306818602668163631462846FFF705
:10571800F2F930B1006808B32146FFF7B3FC04463C
:105728001EE0314601A8FFF78FFF01A92846FFF7C1
:1057380071FD58B96B682A6803F10053013B214693
:1057480052F83300FFF79EFC044601E06FF0F904BD
:1057580002A8FFF758FA03E0044C01E06FF0F904DF
:10576800204607B0F0BD00BF38670D00F2FEFFFF0E
:1057780037B504460D4601A8FEF7E4FF294620691F
:10578800FFF79CFF044601A8FEF7EAFF204603B096
:1057980030BD0000024800230360FEF7C1BD00BF12
:1057A800D4E3032010B58368044613B103220146ED
:1057B8009847204610BD002211464068FEF744BFB6
:1057C800002211464068FEF74FBF00224068FEF7EE
:1057D80043BF002281F001014068FEF72DBF00237E
:1057E8001A4619464068FEF71FBF00231A46194695
:1057F8004068FEF711BF002211464068FEF704BF5B
:10580800002211464068FEF7EFBE002202214068E0
:10581800FEF7F2BE00231A464068FEF7DDBE000020
:10582800024B03225A60024A1A607047D8E30320E9
:10583800EC670D007047F8B5064615460C468F18FC
:10584800BC4206D0336814F8011B9B683046984761
:10585800F6E72846F8BD0022007CFEF7B1BD00211E
:10586800007CFEF7B5BD0021007CFEF7B9BD002124
:10587800007CFEF7BDBD0021007CFEF7C1BD10B560
:105888001421044600F0FFFC204610BD10B5044664
:105898004FF47A730846A3600021044B20746160BA
:1058A8002360FEF7BDFD204610BD00BF20680D0037
:1058B8000021007CFEF7ACBD704710B518210446E6
:1058C80000F0E1FC204610BDF0B5037D062B8DB03D
:1058D8000E4600F104074FF0000402D000F108055D
:1058E80018E00CAD394605F8304D2F232A460A201A
:1058F800FEF79EFD284600F085FE33680246DB6809
:105908002946304698470FE024B12E21304600F052
:10591800C7F9044415F8011D0A22304600F0F0F9D1
:10592800BD420444F0D120460DB0F0BD10B5054B82
:105938000446112240F8043B002100F032FE2046C4
:1059480010BD00BF48680D000346074A10B543F86C
:10595800042B01F1100251F8044B43F8044B914217
:10596800F9D10A781A7010BD48680D0010B59DF875
:10597800084044EA032343EA024242EA016104235D
:105988004160037510BD37B50D788B784A78C978B2
:1059980000912946FFF7EAFF03B030BD014B024AE8
:1059A8001A607047E0E3032007690D0000221146E2
:1059B8004068FEF749BE002211464068FEF754BE13
:1059C80000224068FEF748BE002281F001014068CD
:1059D800FEF732BE00231A4619464068FEF724BE79
:1059E80000231A4619464068FEF716BE00221146E3
:1059F8004068FEF709BE002211464068FEF7F4BD74
:105A0800002202214068FEF7F7BD00231A464068CD
:105A1800FEF7E2BD38B5054688B104684CB1A36805
:105A28001BB103222146204698471021204600F04A
:105A38002AFC28461421BDE8384000F024BC38BDB3
:105A480010B103685B681847704710B503680446CF
:105A5800BBB15868FEF744FC78B923685A7C12B980
:105A68005868FEF745FC23685868FEF749FC20682B
:105A78000023236028B1FFF7CDFF206808B1FFF7A6
:105A8800C9FF204610BD000038B50C4B0360044622
:105A9800D0F8CC0108B1FEF7FEFAD4F8C45135B1FC
:105AA8002846FFF7D2FF0421284600F0ECFBA06847
:105AB80008B1FFF7C5FF204638BD00BF38690D00A3
:105AC80038B50D4C0D4B23600025022304F5E47016
:105AD8006360A560C4F8C451C4F8C851FEF720FC3F
:105AE800074BC4F8CC5123602046064A0649BDE856
:105AF800384000F0C3BB00BFE4E303206C690D002D
:105B080038690D00A4E30320915A0D0000231A46BA
:105B18004068FEF761BD002202214068FEF76CBDB7
:105B2800002211464068FEF75FBD0022114640681A
:105B3800FEF76ABD00231A4619464068FEF76CBD99
:105B480000231A4619464068FEF76EBD002281F010
:105B580001014068FEF770BD00224068FEF77CBD79
:105B6800002211464068FEF77FBD002211464068BA
:105B7800FEF76ABD2DE9F043002495B016460D46A0
:105B88000746FFF7D3FE214620220CA8009400F018
:105B980008FD40230C9321466B460CAA3046FEF7BD
:105BA80057FC0446002844D1024601216868FEF7E4
:105BB8002BFD0221804622466868FEF725FD009EDF
:105BC80081462146002E34D0002932D17368022B39
:105BD80002D00A2B09D02AE0B8F1000F27D071694A
:105BE80038460431FFF7CFFE20E0B9F1000F1ED090
:105BF8007469112201A800F0D4FC06238DF8143032
:105C080001AD04F108031834186859682A4603C21C
:105C18000833A3421546F7D101A906A807ADFFF737
:105C280093FE0FCD3C1D0FC42B6823700121F6692C
:105C3800C8E70098FEF704FC384615B0BDE8F083C5
:105C4800024B034A1A6000225A607047B4E50320E9
:105C58006C690D00F8B506460D468F180024BD4244
:105C68000CD0336815F8011B9B683046984700280C
:105C780001DB0444F3E7002C08BF04462046F8BDC6
:105C880070B505460C46084649B100F0BBFC2B68C8
:105C9800024621462846DB68BDE87040184770BDBB
:105CA80003689B68184730B58BB00B4600218DF808
:105CB8002410012A98BF0A220DF12304B3FBF2F540
:105CC80005FB123303F0FF03092B94BF303337333E
:105CD800DBB2214604F801392B46002DEED1FFF73F
:105CE800CFFF0BB030BD10B42AB903685DF8044B80
:105CF8009B68C9B21847D2B25DF8044BFFF7D3BF0F
:105D0800FFF7F1BF10B50446FFF74CFD204610BD64
:105D18000348044A04490023836000F0AFBA00BF77
:105D2800BCE50320A4E303200D5D0D00704710B50A
:105D38001021044600F0A7FA204610BD70B5084BA4
:105D48000360044600250E4640F80C5FFEF7E0FAB3
:105D580030462671FEF784FBA560204670BD00BF63
:105D6800A0690D000079FEF783BB10B504460068F2
:105D7800FEF78AFC204610BD10B50446006808B13D
:105D8800FEF782FC00232360A360636010BD38B572
:105D980004460D4600680131FEF77EFC10B184E828
:105DA8002100012038BD10B50368044613B14368CB
:105DB8008B4207D22046FFF7EAFF20B1A3680BB950
:105DC80022681370012010BD70B50E4611460446B6
:105DD8001546FFF7E8FF18B92046FFF7CDFF09E0A1
:105DE8002A463146A560206800F0B5FB2268A36802
:105DF8000021D154204670BD38B500230446036005
:105E08004360836003730D4639B1084600F0FAFB1E
:105E1800294602462046FFF7D7FF204638BD38B549
:105E280005460C4641B1084600F0ECFB2146024607
:105E38002846FFF7C9FF01E0FFF79EFF284638BD57
:105E4800044B00204FF6FF72187058809A80FEF7B6
:105E58008FBB00BFCCE50320024B1A68024B1A60C7
:105E6800704700BF3CE30320D4E50320704741742A
:105E7800704708B5007CFEF73BFB20EAE07008BDE0
:105E880008B5007CFEF70CFB20EAE07008BD08B5F9
:105E9800007CFEF715FB30EA200028BF4FF0FF30EA
:105EA80008BD08B5007CFEF703FB30EA200028BFD8
:105EB8004FF0FF3008BD007CFEF70ABB10B5142177
:105EC800044600F0E0F9204610BD70B5457C044654
:105ED8000E4625B9007CFEF70BFB002805DD314690
:105EE800207CBDE87040FEF7D3BA284670BD00009C
:105EF80010B5044608461146002262604FF47A72D3
:105F0800A260054A22600122207462741A46FEF7D4
:105F1800B7FA204610BD00BFDC690D00007CFEF713
:105F2800DFBA000038B50C4D296811F0010411D111
:105F38002846FEF7B2F868B1084A094B09482146D5
:105F4800FFF7D6FF2846FEF7ADF8074A0749054888
:105F580000F094F9034838BD70E6032074E6032086
:105F6800ECE50320D8E50320A4E30320755E0D00CB
:105F780041747047704708B50021007CFEF7D8FAD5
:105F880030EA200028BF4FF0FF3008BD08B50121D6
:105F9800007CFEF7CDFA30EA200028BF4FF0FF3032
:105FA80008BD08B5007CFEF7BBFA20EAE07008BD22
:105FB80008B5007CFEF7ACFA20EAE07008BD007C6A
:105FC800FEF7C6BA10B51421044600F05CF9204665
:105FD80010BD38B50446007C0D46FEF7A1FA00282E
:105FE80001DC607C28B12946207CFEF7A9FA20EA6A
:105FF800E07038BD10B50446002363604FF47A732F
:10600800A360054B2360012308462174637411467D
:10601800FEF776FA204610BD0C6A0D0010B5142262
:106028000446002100F0BDFA204610BD30B50E4DE3
:1060380087B001A8FFF7F2FF296811F0010410D119
:106048002846FEF72AF860B101AA21460748FFF75B
:10605800D1FF2846FEF726F8054A0649034800F00E
:106068000DF9024807B030BDF8E60320FCE603202E
:10607800A4E303207D5F0D0008B50F4B33B1FFF794
:10608800D5FF03681B69984700280DDC0B4B33B11B
:10609800FFF748FF03681B699847002807DC084B8F
:1060A80043B1AFF3008008BDAFF30080EEE7AFF374
:1060B8000080F4E708BD00BF0000000000000000F9
:1060C8000000000008B5FFF7D7FFFEF751F9014BB4
:1060D800186008BD14E7032007B5002300931A468B
:1060E8006FF07701FEF75EFA03B05DF804FB00007D
:1060F80007B543880A2B08D0502B09D1094B1B68D8
:106108003BB103B05DF804EB1847FFF7E5FF06E085
:10611800002300931A466FF07701FEF743FA03B0A5
:106128005DF804FB10E7032010B5FEF711F90446EB
:1061380000F040FA074B13B12046AFF3008000216E
:106148000448FEF741FA00210348BDE81040FEF775
:106158001FBA00BF00000000F9600D0010B504462A
:106168000F48FFF7FFFD28B1A4F10B03022B01D85C
:10617800002010BD00F040F8FFF79AFB08B1012C91
:10618800F6D9FFF7CFFEFFF7C9FE18B1A4F109034E
:10619800012BEDD91E2C8CBF0020012010BD00BFA3
:1061A80030E703201E2838B504460D460AD8FF29D3
:1061B80008D0FFF7D3FF28B129462046BDE838406C
:1061C800FEF7E6B838BD38B504460D46FEF7E8F8E0
:1061D800FF2810D0062804D84D2323FA00F0C3075F
:1061E80009D42046FFF7BAFF28B129462046BDE862
:1061F8003840FEF7DDB838BD38B50B4D296811F0C9
:1062080001040FD12846FDF748FF58B12146074839
:10621800FFF73CFB2846FDF745FF054A05490348BB
:1062280000F02CF8014838BD18E703201CE70320CC
:10623800A4E303203D580D0070B50C4C0C4E0D4DD9
:1062480000212046FFF77AFD20460B4C32462946AE
:1062580000F014F801212046FFF770FD3246294668
:106268002046BDE8704000F009B800BF30E70320C1
:10627800A4E30320355D0D0040E703200B460146EB
:10628800184600F04BB9FDF704BF0000244B1A680C
:10629800D0075CBF01221A60224B1A68D1075CBF85
:1062A80001221A60204B1A68D2075CBF01221A60CB
:1062B8001E4B1A68D0075CBF01221A601C4B1A6873
:1062C800D1075CBF01221A601A4B1A68D2075CBF5B
:1062D80001221A60184B1A68D0075CBF01221A60A5
:1062E800164B1A68D1075CBF01221A60144B1A6852
:1062F800D2075CBF01221A60124B1A68D0075CBF34
:1063080001221A60104B1A68D1075CBF01221A607B
:106318000E4B1A68D2075CBF01221A60704700BF93
:106328007CE7032078E7032074E7032070E7032065
:106338006CE7032068E7032064E7032060E7032095
:106348005CE7032058E7032054E7032050E70320C5
:10635800184B1A68D1075CBF01221A60164B1A68DD
:10636800D2075CBF01221A60144B1A68D0075CBFC1
:1063780001221A60124B1A68D1075CBF01221A6009
:10638800104B1A68D2075CBF01221A600E4B1A68BC
:10639800D0075CBF01221A600C4B1A68D1075CBF9A
:1063A80001221A600A4B1A68D2075CBF01221A60E0
:1063B800704700BF9CE7032098E7032094E7032079
:1063C80090E703208CE7032088E7032084E7032075
:1063D80080E70320184B1A68D1075CBF01221A60B6
:1063E800164B1A68D2075CBF01221A60144B1A6850
:1063F800D0075CBF01221A60124B1A68D1075CBF34
:1064080001221A60104B1A68D2075CBF01221A6079
:106418000E4B1A68D0075CBF01221A600C4B1A6831
:10642800D1075CBF01221A600A4B1A68D2075CBF09
:1064380001221A60704700BFBCE70320B8E70320B9
:10644800B4E70320B0E70320ACE70320A8E7032064
:10645800A4E70320A0E70320244B1A68D0075CBFF9
:1064680001221A60224B1A68D1075CBF01221A6008
:10647800204B1A68D2075CBF01221A601E4B1A68AB
:10648800D0075CBF01221A601C4B1A68D1075CBF99
:1064980001221A601A4B1A68D2075CBF01221A60DF
:1064A800184B1A68D0075CBF01221A60164B1A688D
:1064B800D1075CBF01221A60144B1A68D2075CBF6F
:1064C80001221A60124B1A68D0075CBF01221A60B9
:1064D800104B1A68D1075CBF01221A600E4B1A686C
:1064E800D2075CBF01221A60704700BFECE70320A7
:1064F800E8E70320E4E70320E0E70320DCE70320E4
:10650800D8E70320D4E70320D0E70320CCE7032013
:10651800C8E70320C4E70320C0E7032010B5054CF3
:1065280013462CB10A4601460220AFF3008010BD85
:10653800204610BD0000000010B501390244904209
:1065480007D010F8013B11F8014FA342F7D0181BF0
:1065580010BD002010BD10B5431E0A44914204D05E
:1065680011F8014B03F8014FF8E710BD884210B548
:1065780001EB020301D8421E0BE09842FBD28118BE
:10658800D21AD34204D013F8014D01F8014DF8E7AF
:1065980010BD994204D011F8014B02F8014FF8E7F9
:1065A80010BD02440346934202D003F8011BFAE7E8
:1065B8007047000038B5124B1C68A36B0546D3B969
:1065C8001820FEF759F843F20E33A06303804AF609
:1065D800CD33438041F2342383804EF26D63C38010
:1065E8004DF6EC630381052343810B23838101224C
:1065F8000023C0E90423A36B00221D615A6138BD42
:10660800A0E30320034613F8012B002AFBD1181A34
:10661800013870471D400D0059400D0085400D00A0
:1066280089400D00000000006C6967687456616C51
:106638007565004F6E006C6967687431004F666657
:10664800006C6967687432003336663236306465C8
:106658002D306239332D343335322D626161332D5B
:1066680035366238626531653630366100323666F5
:1066780032363064652D306239332D343335322D5E
:10668800626161332D353662386265316536303680
:10669800610064633133623336612D333439392D07
:1066A800343662302D616331312D356163303137D5
:1066B8003363346363350034363737303632632D0D
:1066C800616430322D343033342D396162662D39AE
:1066D800383538313737323432376300000000003C
:1066E80000000000C3460D00C9460D00ED540D0022
:1066F800F3460D00C5460D00000000000000000034
:10670800BD460D00D7460D00F9550D00F7460D00A2
:10671800BF460D000000000000000000B7460D0055
:10672800E5460D00C74C0D00FB460D00B9460D00AF
:106738007BE327747BF815ACDD49A913000072F5DB
:10674800776972696E672E626C6500537461727442
:1067580020646973636F766572696E67207365720A
:1067680076696365732E005374617274206469736B
:10677800636F766572696E672063686172616374BE
:1067880065726973746963732E0068616C5F626C0B
:10679800655F676174745F636C69656E745F646973
:1067A80073636F7665725F616C6C5F73657276692F
:1067B8006365732829206661696C65643B202564DC
:1067C800004E6577207065726970686572616C202B
:1067D800636F6E6E65637465642E000000000000D0
:1067E800000000001D580D0013580D0009580D0039
:1067F800FF570D00F3570D00E7570D00DB570D004D
:10680800D3570D00C9570D00BF570D007D5B0D0014
:1068180000000000000000003D580D0087580D00E2
:106828005F580D003F580D0067580D006F580D0058
:1068380077580D007F580D00000000000000000090
:10684800D1580D00C1580D00C3580D006C6E00667C
:106858006E00636F64650064657461696C000D0A9D
:1068680000253031307520005D20002C20002829BB
:106878003A2000205B00636F6465203D2000256995
:106888000064657461696C73203D20006261756401
:106898000053657269616C0053657269616C3100FF
:1068A8007479706500706172616D00636D64006970
:1068B8006400686E64007374726D0066696C7400BD
:1068C8006C766C0061646448616E646C6572007219
:1068D800656D6F766548616E646C657200656E758E
:1068E8006D48616E646C657273004A534F4E537401
:1068F8007265616D4C6F6748616E646C65720061AA
:106908007070006E6F6E6500747261636500696E09
:10691800666F007761726E006572726F72007061E7
:106928006E696300616C6C000000000000000000EC
:10693800135A0D00095A0D00FF590D00F5590D00A5
:10694800E9590D00DD590D00D1590D00C9590D0047
:10695800BF590D00B5590D007D5B0D00000000000A
:1069680000000000155B0D001F5B0D00295B0D008A
:10697800335B0D003D5B0D00495B0D00555B0D0061
:10698800615B0D00695B0D00735B0D007D5B0D00A5
:106998000000000000000000355D0D00375D0D00AF
:1069A8005A00252B3033643A253032750025592D8D
:1069B800256D2D25645425483A254D3A2553257AC9
:1069C8000061736374696D650000000000000000D9
:1069D80000000000755E0D00C55E0D00D35E0D0061
:1069E8005D5C0D00895E0D00AB5E0D00975E0D00CD
:1069F800BF5E0D00775E0D007B5E0D00000000009D
:106A0800000000007D5F0D00CD5F0D00DB5F0D0015
:106A18005D5C0D00B95F0D007F5F0D00955F0D0097
:106A2800C75F0D00AB5F0D00795F0D00000000002F
:106A3800000000000000000000000000000000004E
:106A4800000000000000000000000000000000003E
:106A5800000000000000000000000000000000002E
:106A6800000000000000000000000000000000001E
:106A7800000000000000000000000000000000000E
:106A880000000000000000000000000043000000BB
:106A98006D420D009D570D0029580D00A5590D0098
:106AA800C95A0D00495C0D00195D0D00495E0D00C5
:106AB800615E0D0041620D0095620D0059630D0085
:086AC800DD630D0061640D00A7
:106AD0009A660D001000000075660D00BF660D007F
:106AE00007000000C9690D0000000000346A0D00B5
:106AF000546A0D00746A0D000000000000000000E0
:106B00000000000000000000946A0D00000000007A
:106B10000000000000000000000000000000000075
:106B20000000000000000000000000000000000065
:106B30000000000000000000000000000000000055
:0C6B4000000000000000000040E3032003
:106B4C00FFFFFFFF00000102030405060708090A06
:106B5C000B0C0D0E0F101112131415161718191A01
:086B6C001B1C1D1E1F20280048
:046B74007856341209
:04000003D0004018D1
:00000001FF
